:020000040800F2
:1000000000000320FD160008C1050008C305000814
:10001000C5050008C7050008C90500080000000064
:10002000000000000000000000000000CB050008F8
:10003000CD05000800000000CF050008D10500082C
:100040004D1700084D1700084D1700084D17000800
:100050004D1700084D1700084D1700084D170008F0
:100060004D1700084D1700084D1700084D170008E0
:100070004D1700084D1700084D1700084D170008D0
:100080004D1700084D1700084D1700084D170008C0
:100090004D1700084D1700084D1700084D170008B0
:1000A0004D1700084D1700084D1700084D170008A0
:1000B0004D1700084D1700084D1700084D17000890
:1000C0004D1700084D1700084D1700084D17000880
:1000D0004D1700084D1700084D1700084D17000870
:1000E000D90500084D1700084D1700084D170008E6
:1000F0004D1700084D1700084D1700084D17000850
:100100004D1700084D1700084D1700084D1700083F
:100110004D1700084D1700084D1700084D1700082F
:100120004D1700084D1700084D1700084D1700081F
:100130004D1700084D1700084D1700084D1700080F
:100140004D1700084D1700084D1700084D170008FF
:100150004D1700084D1700084D1700084D170008EF
:100160004D1700084D1700084D1700084D170008DF
:100170004D1700084D1700084D170008000000003B
:100180004D1700084D1700084D1700084D170008BF
:100190004D1700084D1700084D1700084D170008AF
:0C01A0004D1700084D1700084D1700080F
:1001AC0053B94AB9002908BF00281CBF4FF0FF31D2
:1001BC004FF0FF3000F00CB8ADF1080C6DE904CE37
:1001CC0001F0ECFADDF804E0DDE9022304B070473D
:1001DC00704700BF0348044B834202D0034B03B16A
:1001EC00184770470C0000200C0000200000000095
:1001FC000548064B1B1AD90F01EBA301491002D07D
:10020C00034B03B1184770470C0000200C00002072
:10021C000000000010B5064C237843B9FFF7DAFF55
:10022C00044B13B10448AFF300800123237010BDBD
:10023C000C00002000000000641A000808B5054BF3
:10024C001BB105490548AFF30080BDE80840FFF736
:10025C00CFBF00BF0000000010000020641A00088F
:10026C0072B6FEE700B595B03022002108A801F067
:10027C0068FA002303930493059306930793019361
:10028C00204A116C41F080511164126C02F08052C2
:10029C000192019A02931C4B1A6842F440421A6074
:1002AC001B6803F440430293029B012308934FF411
:1002BC00A023099302230E934FF480020F92042281
:1002CC001092A822119212930723139308A800F0FE
:1002DC0057FA98B90F230393022304930023059331
:1002EC004FF4A05306934FF480530793052103A8B2
:1002FC0000F0B0FC20B915B05DF804FBFFF7B0FFBF
:10030C00FFF7AEFF003802400070004008B500F067
:10031C0037FFFFF7A7FF00F00FF800F099F800F097
:10032C00E9F88021034800F075FE4FF47A7000F074
:10033C0053FFF6E700040240F0B58DB0002407949B
:10034C00089409940A940B9401943D4B1A6B42F057
:10035C0004021A631A6B02F004020192019A0294CD
:10036C001A6B42F080021A631A6B02F0800202923E
:10037C00029A03941A6B42F002021A631A6B02F08F
:10038C0002020392039A04941A6B42F008021A6355
:10039C001A6B02F008020492049A05941A6B42F04C
:1003AC0040021A631A6B02F040020592059A0694F9
:1003BC001A6B42F001021A631B6B03F001030693E4
:1003CC00069B204F224644F28101384600F01CFE69
:1003DC001D4D22464021284600F016FE4FF40053D6
:1003EC0007934FF404130893099407A9174800F0D6
:1003FC0007FD44F2810307930126089609940A9499
:10040C0007A9384600F0FCFC402307930896099492
:10041C000A9407A9284600F0F3FC8023079308945C
:10042C00099407A9284600F0EBFC22462146282017
:10043C0000F04EFE282000F05BFE0DB0F0BD00BFBA
:10044C00003802400004024000180240000802403C
:10045C0008B50A480A4B03604FF4E13343600023AC
:10046C008360C36003610C2242618361C36100F04D
:10047C0057F900B908BDFFF7F3FEFBE72800002091
:10048C000048004000B589B0002303930493059302
:10049C00069307930268154B9A4202D009B05DF897
:1004AC0004FB0021019103F5F8331A6C42F480220D
:1004BC001A641A6C02F480220192019A02911A6B4E
:1004CC0042F008021A631B6B03F008030293029BB1
:1004DC004FF44073039302230493032306930723DF
:1004EC00079303A9024800F08BFCD7E700480040B3
:1004FC00000C024008B50C484FF0A04303600423E5
:10050C0043600222C2600023036182610122C26146
:10051C0003624362C262036300F072FE00B908BD5D
:10052C00FFF79EFEFBE700BF6C00002070B588B0A3
:10053C000023039304930593069307930368B3F185
:10054C00A04F01D008B070BD00250195174C236B4E
:10055C0043F001032363236B03F001030193019B1D
:10056C004FF4E853039302230493032306930A23C3
:10057C0007930F4E03A9304600F042FC4FF4007372
:10058C0003930495059503A9304600F039FC636B81
:10059C0043F0800363630295636C43F480436364AC
:1005AC00636C03F480430293029BCBE70038024058
:1005BC0000000240FEE7FEE7FEE7FEE7FEE77047BD
:1005CC007047704708B500F0F5FD08BD08B54FF44D
:1005DC00005000F029FD08BD82B0002100910B4BAA
:1005EC005A6C42F480425A645A6C02F48042009273
:1005FC00009A01911A6C42F080521A641B6C03F041
:10060C0080530193019B02B0704700BF0038024039
:10061C0010B504460268136923F44053C1680B43B8
:10062C001361836802691A4343691A43C3691A4305
:10063C000168CB6823F4164323F00C031343CB60FF
:10064C000268536923F4407381690B435361036857
:10065C00314A934206D002F58062934202D000F0F8
:10066C00AFFB01E000F0BCFBE369B3F5004F29D010
:10067C000021031849411B1841F10001C90041EA4E
:10068C005371DB00181863684FEA83024FEA9373C7
:10069C0041F10001FFF784FD204AA2FB003149091A
:1006AC00642303FB11031B013233A2FB03235B09FD
:1006BC0003F0F00202EB011203F00F032168134464
:1006CC008B6010BD0023021843EB0301121841F19B
:1006DC000001C90041EA5271D200101841F1000129
:1006EC00626892185B41FFF75BFD0C4AA2FB00317C
:1006FC004909642303FB1103DB003233A2FB032300
:10070C005B095A0002F4F87202EB011203F00703C2
:10071C00216813448B60D4E7001001401F85EB5116
:10072C0058B310B5044690F83D300BB3242384F82D
:10073C003D302268D36823F40053D3602046FFF782
:10074C0067FF2268136923F490431361226853698D
:10075C0023F02A0353612268D36843F40053D36017
:10076C0000202064202384F83D3084F83E3010BDF6
:10077C0080F83C30FFF786FED8E701207047000078
:10078C00002800F0E08170B582B00446036813F0D5
:10079C00010F3BD09F4B9B6803F00C03042B2CD018
:1007AC009C4B9B6803F00C03082B21D06368B3F5BA
:1007BC00803F4FD0B3F5A02F52D0964B1A6822F43D
:1007CC0080321A601A6822F480221A606368002B47
:1007DC0050D000F0FBFC05468E4B1B6813F4003F19
:1007EC0014D100F0F3FC401B6428F5D90320B1E1CF
:1007FC00884B5B6813F4800FD8D0864B1B6813F4BE
:10080C00003F03D06368002B00F09F81236813F036
:10081C00020F54D07F4B9B6813F00C0F3ED07D4BD6
:10082C009B6803F00C03082B33D0E368002B68D0D3
:10083C00794B01221A6000F0C9FC0546754B1B6808
:10084C0013F0020F54D100F0C1FC401B0228F5D963
:10085C0003207FE16F4A136843F480331360B5E7DC
:10086C006C4B1A6842F480221A601A6842F4803287
:10087C001A60ABE700F0AAFC0546664B1B6813F444
:10088C00003FC3D000F0A2FC401B6428F5D9032024
:10089C0060E1604B5B6813F4800FC6D15D4B1B6845
:1008AC0013F0020F03D0E368012B40F05081594A3A
:1008BC00136823F0F803216943EAC103136023682A
:1008CC0013F0080F42D063696BB3534B0122C3F88A
:1008DC00802E00F07BFC05464E4B5B6F13F0020F35
:1008EC0034D100F073FC401B0228F5D9032031E110
:1008FC00484A136823F0F803216943EAC1031360E3
:10090C00DDE7454B00221A6000F060FC0546414BC8
:10091C001B6813F0020FD2D000F058FC401B0228C9
:10092C00F5D9032016E13C4B0022C3F8802E00F0D1
:10093C004DFC0546374B5B6F13F0020F06D000F0F1
:10094C0045FC401B0228F5D9032003E1236813F072
:10095C00040F77D02F4B1B6C13F0805F33D1002327
:10096C0001932C4B1A6C42F080521A641B6C03F0EE
:10097C0080530193019B0125284B1B6813F4807F46
:10098C0023D0A368012B34D0052B38D0214B1A6F00
:10099C0022F001021A671A6F22F004021A67A36888
:1009AC00002B3DD000F012FC06461A4B1B6F13F0C7
:1009BC00020F46D100F00AFC801B41F288339842AA
:1009CC00F3D90320C6E00025D6E7144A136843F494
:1009DC008073136000F0FAFB0646104B1B6813F48F
:1009EC00807FCED100F0F2FB801B0228F5D90320CA
:1009FC00B0E0084A136F43F001031367CFE7054BD0
:100A0C001A6F42F004021A671A6F42F001021A6759
:100A1C00C5E700BF003802400000474200700040AC
:100A2C0000F0D4FB0646524B1B6F13F0020F08D09C
:100A3C0000F0CCFB801B41F288339842F3D90320A1
:100A4C0088E0EDB9A369002B00F08380484A9268D6
:100A5C0002F00C02082A51D0022B17D0454B002271
:100A6C001A6600F0B3FB0446414B1B6813F0007F81
:100A7C0042D000F0ABFB001B0228F5D9032069E043
:100A8C003B4A136C23F080531364DBE7394B002291
:100A9C001A6600F09BFB0546354B1B6813F0007F74
:100AAC0006D000F093FB401B0228F5D9032051E03F
:100ABC00E369226A1343626A43EA8213A26A520808
:100ACC00013A43EA0243E26A43EA0263284A53606A
:100ADC00284B01221A6600F079FB0446244B1B6854
:100AEC0013F0007F06D100F071FB001B0228F5D932
:100AFC0003202FE000202DE000202BE0012B2BD039
:100B0C001B4B5B6803F48001E269914226D103F030
:100B1C003F02216A8A4223D1616A47F6C0721A40A9
:100B2C00B2EB811F1ED103F44031A26A5208013A84
:100B3C00B1EB024F18D103F07063E26AB3EB026FB2
:100B4C0014D1002006E001207047012002E00120B2
:100B5C0000E0002002B070BD0120FBE70120F9E7A6
:100B6C000120F7E70120F5E70120F3E70120F1E789
:100B7C00003802400000474208B5334B9B6803F035
:100B8C000C03042B5BD0082B5BD12F4B5A6802F063
:100B9C003F025B6813F4800F2CD02B4B5868C0F3CA
:100BAC0088104FEA401CBCEB000C6EEB0E0E4FEAAB
:100BBC008E1343EA9C634FEA8C11B1EB0C0163EB8F
:100BCC000E03DB0043EA5173C90011EB000C43F137
:100BDC000003590200234FEA4C2041EADC51FFF795
:100BEC00DFFA194B5B68C3F3014301335B00B0FBC5
:100BFC00F3F027E0144B5868C0F388104FEA401C00
:100C0C00BCEB000C6EEB0E0E4FEA8E1343EA9C63AA
:100C1C004FEA8C11B1EB0C0163EB0E03DB0043EAE2
:100C2C005173C90011EB000C43F10003990200232E
:100C3C004FEA8C2041EA9C51FFF7B2FAD1E7034806
:100C4C0000E0034808BD00BF0038024000127A00E3
:100C5C000024F400002800F09B8070B50D4604467B
:100C6C004F4B1B6803F00F038B4208D2CBB24C4A9C
:100C7C001370136803F00F038B4240F08B802368D2
:100C8C0013F0020F17D013F0040F04D0454A9368E9
:100C9C0043F4E0539360236813F0080F04D0414AE7
:100CAC00936843F4604393603E4A936823F0F003E7
:100CBC00A1680B439360236813F0010F32D0636873
:100CCC00012B21D09A1E012A25D9364A126812F01E
:100CDC00020F61D033498A6822F0030213438B6000
:100CEC0000F074FA06462F4B9B6803F00C03626805
:100CFC00B3EB820F16D000F069FA801B41F28833F7
:100D0C009842F0D9032042E0264A126812F4003FC0
:100D1C00E0D101203BE0234A126812F0007FD9D1C8
:100D2C00012034E01E4B1B6803F00F03AB4207D9C4
:100D3C00EAB21B4B1A701B6803F00F03AB422DD1A8
:100D4C00236813F0040F06D0164A936823F4E0537B
:100D5C00E1680B439360236813F0080F07D0114A26
:100D6C00936823F46043216943EAC1039360FFF75E
:100D7C0003FF0C4B9B68C3F303130B4AD35CD840A3
:100D8C000A4B18600A4B186800F0D4F9002070BDAB
:100D9C00012070470120FAE70120F8E70120F6E76F
:100DAC00003C024000380240841A00080800002071
:100DBC0004000020014B1868704700BF0800002099
:100DCC0008B5FFF7F7FF044B9B68C3F38223034A74
:100DDC00D35CD84008BD00BF003802407C1A000824
:100DEC0008B5FFF7E7FF044B9B68C3F34233034A94
:100DFC00D35CD84008BD00BF003802407C1A000804
:100E0C0000230F2B00F2F68070B582B066E0856887
:100E1C004FEA430E032404FA0EF425EA0405CC68C9
:100E2C0004FA0EF42C438460446824EA02044A68F1
:100E3C00C2F300129A40224342605DE0DC080834A1
:100E4C0050F8242003F00705AD004FF00F0E0EFAFA
:100E5C0005FE22EA0E0E0A69AA4042EA0E0240F88A
:100E6C0024205DE0092200E0002202FA0EF22A435F
:100E7C000234614D45F82420604A94686FEA0C02F4
:100E8C0024EA0C054E6816F4801F01D04CEA0405C8
:100E9C005A4CA560E46802EA04054E6816F4001F7B
:100EAC0001D04CEA0405554CE560646802EA04057F
:100EBC004E6816F4003F01D04CEA04054F4C6560B7
:100ECC00246822404D6815F4803F01D04CEA04029E
:100EDC004A4C226001330F2B00F28A8001229A4087
:100EEC000C6804EA020C32EA0404F3D14C6804F0F6
:100EFC000304013C012C8AD94A6802F00302032A3C
:100F0C0009D0C4685D000322AA4024EA02048A685E
:100F1C00AA402243C2604A6802F00302022A8DD022
:100F2C0004684FEA430E032202FA0EF224EA02048A
:100F3C004A6802F0030202FA0EF2224302604A6887
:100F4C0012F4403FC6D0002201922D4A546C44F456
:100F5C0080445464526C02F480420192019A9C08C1
:100F6C00A51C254A52F8255003F0030E4FEA8E0EAD
:100F7C000F2202FA0EF225EA0205224A90423FF4B1
:100F8C0073AF02F58062904222D002F580629042EB
:100F9C0020D002F5806290421ED002F58062904211
:100FAC001CD002F5806290421AD002F58062904209
:100FBC0018D002F58062904216D002F58062904201
:100FCC0014D002F5806290423FF44CAF0A224CE7F9
:100FDC0001224AE7022248E7032246E7042244E7BB
:100FEC00052242E7062240E707223EE708223CE7BB
:100FFC0002B070BD704700BF00380140003C01409A
:10100C0000380240000002400AB1816170470904B7
:10101C0081617047436901EA030221EA030141EA55
:10102C00024181617047704708B5054B5B6903420B
:10103C0000D108BD024B5861FFF7F5FFF9E700BF7F
:10104C00003C0140002808DB0901C9B200F16040F6
:10105C0000F5614080F80013704700F00F000901A3
:10106C00C9B2014B1954704714ED00E000B500F003
:10107C000700C0F1070CBCF1040F28BF4FF0040CA3
:10108C00031D062B0FD9C31E4FF0FF3E0EFA0CF0BA
:10109C0021EA000199400EFA03FE22EA0E0241EA0F
:1010AC0002005DF804FB0023EEE70000074AD3685A
:1010BC0023F4E0631B041B0C000200F4E060034308
:1010CC0043F0BF6343F40033D360704700ED00E09E
:1010DC0010B50446054BD868C0F30220FFF7C6FFD5
:1010EC0001462046FFF7AEFF10BD00BF00ED00E04B
:1010FC00002807DB00F01F02400901239340024A3D
:10110C0042F82030704700BF00E100E00138B0F138
:10111C00807F0BD24FF0E0235861054AF02182F812
:10112C0023100020986107221A6170470120704734
:10113C0000ED00E010B504460E4B1A784FF47A73AC
:10114C00B3FBF2F30C4A1068B0FBF3F0FFF7DEFFD1
:10115C0068B90F2C01D901200AE0002221464FF07A
:10116C00FF30FFF7B5FF054B1C60002000E00120AD
:10117C0010BD00BF0000002008000020040000206B
:10118C0008B50B4B1A6842F400721A601A6842F4E4
:10119C0080621A601A6842F480721A600320FFF7AA
:1011AC0085FF0020FFF7C6FFFFF716FA002008BDE9
:1011BC00003C0240034A1168034B1B780B4413603C
:1011CC00704700BF7805002000000020014B186814
:1011DC00704700BF7805002038B50446FFF7F6FFCE
:1011EC000546B4F1FF3F02D0044B1B781C44FFF7BB
:1011FC00EDFF401BA042FAD338BD00BF0000002019
:10120C0070B58AB0002800F090800546046890F80C
:10121C00BD343BB3032385F8BD34E36B13F4807FFB
:10122C0001D100232B61286800F0EFF82C4654F80C
:10123C00106BEC460FCCACE80F000FCCACE80F00F9
:10124C0094E803008CE803002B1D0ECB304600F015
:10125C0097F8044658B1022385F8BD340124204682
:10126C000AB070BD80F8BC34FFF760F9D2E70021FA
:10127C00286800F001FA234616E003EBC30205EBE5
:10128C008202012182F83D1082F83C30A2F84430F1
:10129C00002182F840109164D16403EBC30205EB8A
:1012AC00820251650133DBB269688B42E5D316E0EB
:1012BC0004EBC40305EB8303002283F87D2283F83F
:1012CC007C4283F88022C3F88822C3F88C2204EB7A
:1012DC00C40305EB8303C3F894220134E4B2A142A6
:1012EC00E6D82C4654F8106BEC460FCCACE80F004B
:1012FC000FCCACE80F0094E803008CE803002B1D26
:10130C000ECB304600F0DEF8044620B1022385F8FF
:10131C00BD340124A3E7002385F83830012385F878
:10132C00BD34286800F096F999E7012497E700008E
:10133C0082B000230193019B01330193019A0F4B5F
:10134C009A4215D80369002BF5DA0023019303693F
:10135C0043F001030361019B01330193019A074B95
:10136C009A4208D8036913F0010FF4D1002000E071
:10137C00032002B070470320FBE700BF400D0300C1
:10138C0084B010B5044603A880E80E00089B012B1E
:10139C001FD1A36B23F48033A363E36823F484038A
:1013AC0023F04003E360E36823F44013E3600F9BF6
:1013BC00012B09D02046FFF7BBFF069B012B1BD04E
:1013CC00BDE8104004B07047E36843F48013E36059
:1013DC00F0E7E36843F04003E3602046FFF7A8FF23
:1013EC000C9B23B9A36B43F48033A363E5E7A36B96
:1013FC0023F48033A363E0E7A36843F00603A36000
:10140C00A36843F02003A360DAE7836823F00103A9
:10141C00836000207047000082B000230193019B81
:10142C0001330193019A0F4B9A4215D80369002B93
:10143C00F5DA00230193890141F020010161019B40
:10144C0001330193019A074B9A4208D8036913F0B0
:10145C00200FF4D1002000E0032002B070470320DD
:10146C00FBE700BF400D030082B000230193019BFA
:10147C0001330193019A0E4B9A4213D80369002B46
:10148C00F5DA0023019310230361019B01330193CF
:10149C00019A074B9A4208D8036913F0100FF4D144
:1014AC00002000E0032002B070470320FBE700BFE0
:1014BC00400D0300D0F800381943C0F80018002084
:1014CC007047000084B02DE9F041044607A880E87D
:1014DC000E00002306E003F1400204EB820200211F
:1014EC00516001330E2BF6D9119F27BBD4F8043869
:1014FC0043F00203C4F80438A36B43F40013A36352
:10150C00A36B23F40023A363A36B23F48023A363B3
:10151C000023C4F8003E04F50065D4F80038C4F884
:10152C0000380C9B012B14D1099B6BB90021204670
:10153C00FFF7C0FF11E0A36B23F40013A363A36BAD
:10154C0043F40023A363E3E701212046FFF7B2FF36
:10155C0003E003212046FFF7ADFF10212046FFF7E3
:10156C005BFF804608B14FF001082046FFF77CFF77
:10157C0008B14FF0010800232B616B61EB610AE0AD
:10158C00C3B94FF00060C2F8000900220A614FF69F
:10159C007F328A6001330799994210D904EB4312C8
:1015AC0002F51061D2F800090028E9DB0020C2F82E
:1015BC000009EAE74FF09040C2F80009E5E7002384
:1015CC000AE0C3B14FF0904CC2F800CB002202618C
:1015DC004FF67F3282600133994211D904EB4312EA
:1015EC0002F53060D2F8006B002EEADB4FF0000CF5
:1015FC00C2F800CBEAE74FF0006CC2F800CBE5E78D
:10160C002B6923F480732B610023A3616FF080435B
:10161C0063610A9B1BB9A36943F01003A361A26920
:10162C000B4B1343A3610D9B1BB1A36943F0080340
:10163C00A361012F04D04046BDE8F04104B07047CF
:10164C00A36943F0804343F00403A361F3E700BFB5
:10165C0000383C80D0F8003E23F00303C0F8003E75
:10166C00D0F8043843F00203C0F804380020704767
:10167C00406900F00100704738B50546C36823F097
:10168C00C043C360012913D019BBC36843F0804326
:10169C00C36000240120FFF79FFD01342846FFF7AB
:1016AC00E7FF08B1312CF5D9322C14D0002038BD0D
:1016BC00C36843F00053C36000240120FFF78CFD86
:1016CC0001342846FFF7D4FF0128EDD0312CF4D992
:1016DC00EAE70120EBE70120E9E70000034AD2F832
:1016EC00883043F47003C2F88830704700ED00E096
:1016FC00DFF834D00D480E490E4A002302E0D458CE
:10170C00C4500433C4188C42F9D30B4A0B4C00233D
:10171C0001E013600432A242FBD3FFF7DFFF00F0BD
:10172C0019F8FEF7F3FD70470000032000000020BD
:10173C000C000020A41A00080C0000207C050020DE
:10174C00FEE702440346934200D1704703F8011BA5
:10175C00F9E7000070B50D4D0D4C641BA41000266C
:10176C00A64209D10B4D0C4C00F076F9641BA41069
:10177C000026A64205D170BD55F8043B98470136AA
:10178C00EEE755F8043B98470136F2E79C1A00083F
:10179C009C1A00089C1A0008A01A00082DE9F047B2
:1017AC00089D0C46002B4ED194468C458646B2FAC9
:1017BC0082F262D94AB1C2F12003914020FA03F3BC
:1017CC000CFA02FC194300FA02FE4FEA1C471FFAFE
:1017DC008CF6B1FBF7F44FEA1E4307FB141143EAF6
:1017EC00014304FB06F199420AD91CEB030304F1F3
:1017FC00FF3080F01381994240F21081023C634427
:10180C00591A1FFA8EF3B1FBF7F007FB101143EADC
:10181C00014300FB06F69E420AD91CEB030300F1C0
:10182C00FF3180F0FD809E4240F2FA806344023822
:10183C009B1B40EA044000211DB1D3400022C5E9A6
:10184C000032BDE8F0878B4205D90DB1C5E9000126
:10185C0000210846F5E7B3FA83F1002946D1A342EB
:10186C0002D39042C0F0F180861A64EB030301208E
:10187C00002DE6D0C5E90063E3E7002A40F0918033
:10188C00A1EB0C044FEA1C481FFA8CF70121B4FBA6
:10189C00F8F64FEA1E4308FB164443EA044307FBE1
:1018AC0006F0984208D91CEB030306F1FF3402D270
:1018BC00984200F2CE8026461C1A1FFA8EF3B4FB17
:1018CC00F8F008FB104443EA044300FB07F79F427F
:1018DC0008D91CEB030300F1FF3402D29F4200F243
:1018EC00B1802046DB1B40EA0640A5E7C1F120068B
:1018FC008B4022FA06F71F4320FA06FC04FA01F388
:10190C0043EA0C03F44000FA01F8380C4FEA13498F
:10191C00B4FBF0FE1FFA87FC00FB1E4449EA0444AA
:10192C000EFB0CF9A14502FA01F20AD93C190EF191
:10193C00FF3A80F08580A14540F28280AEF1020E24
:10194C003C44A4EB09041FFA83F9B4FBF0F300FB4D
:10195C00134449EA044403FB0CFCA44507D93C1985
:10196C0003F1FF3068D2A44566D9023B3C4443EAFC
:10197C000E40A0FB0293A4EB0C049C42CE469C466A
:10198C0052D34FD055B1B8EB0E0364EB0C0404FAF0
:10199C0006F6CB40CC401E43C5E900640021BDE8EF
:1019AC00F087C2F1200320FA03F10CFA02FC24FAAE
:1019BC0003F394400C434FEA1C4800FA02FE1FFA52
:1019CC008CF7B3FBF8F008FB1031230C43EA01430E
:1019DC0000FB07F1994208D91CEB030300F1FF3619
:1019EC002CD299422AD9023863445B1AA4B2B3FBB5
:1019FC00F8F108FB113344EA034401FB07F3A3425B
:101A0C0008D91CEB040401F1FF3613D2A34211D9FF
:101A1C0002396444E41A41EA004138E70446EFE62F
:101A2C00084605E7C845ADD2B9EB020E63EB070CCF
:101A3C000138A7E73146EDE7034698E73046D4E78F
:101A4C00D6467EE7634402384CE7064623460846F2
:101A5C000EE7023E63442FE7F8B500BFF8BC08BCA4
:101A6C009E467047F8B500BFF8BC08BC9E46704750
:101A7C000000000001020304000000000000000050
:081A8C0001020304060708092A
:081A940014FDFF7F01000000BA
:041A9C0049020008F3
:041AA0002102000817
:0C1AA40001000000100000000024F4000D
:04000005080016FDDC
:00000001FF
